S021000074666C6974655F776561746865725F6D6F6E69746F72696E672E7372656387
S315000000004005002071540300155303006D5403008E
S315000000106D5403006D5403006D5403006D540300CA
S315000000200000000000000000000000006D54030006
S315000000306D540300000000006D5403007145030079
S3150000004000000000181904004010040048100400C5
S315000000504C100400541004000000F8410000204237
S3150000006000002C4200000C420000B0420000AA42F0
S315000000700000B4420000A4420000BC420000B842A6
S315000000800000C2420000B6420000544200005C423A
S315000000900000684200004842000070420000A6428C
S315000000A000008C4200007842000040420000A0425E
S315000000B0000070420000C2420000044200000C42F0
S315000000C000001842000020420000A0410000B0419C
S315000000D00000C8410000D041000070410000884186
S315000000E000009041000098410000D8410000E04126
S315000000F00000E8410000F8410000C0410000B8419E
S315000001000000CC410000F041000000420000A84180
S315000001100000804100009841055D0300759E0300C4
S31500000120E40000200000000060840020C884002055
S3150000013030850020000000000000000000000000E4
S3150000014000000000000000000000000000000000A9
S315000001500000000000000000000000000000000099
S315000001600000000000000000000000000000000089
S315000001700348044B834202D0034B03B11847704730
S31500000180300100203001002000000000064B074926
S31500000190C91A891048BF0131491003D0044B0BB16D
S315000001A001481847704700BF300100203001002089
S315000001B00000000010B5064C237843B9FFF7D8FFBE
S315000001C0044B13B10448AFF300800123237010BD24
S315000001D05C0500200000000084A2000108B5054B64
S315000001E01BB105490548AFF30080BDE80840FFF79D
S315000001F0CDBF00BF000000006005002084A2000102
S3150000020008B5A0B102680346821A11880A2909D9DD
S31500000210508900B1185C92881AB19B5C984238BF2D
S31500000220184608BD04294FF00000F4D808BD39F07F
S3150000023021FE00BF03464FF0010C002010B40D4C08
S31500000240D960A4FB0242520901EB0211196101EBCC
S3150000025082015A60596101EB820102EB420201EB15
S315000002608202986083F828C099615A625DF8044B4F
S31500000270704700BFCDCCCCCC704700BF80687047BC
S3150000028010B5044635F006FA204610BD70B5844612
S31500000290D0E90104844216DA4FF0FF354FF0010E23
S315000002A0DCF80C1026018A5101EB04129360049BC2
S315000002B05560D360DCF808308CF828E07344CCF83D
S315000002C00830002070BD02460846024932F08AFC1A
S315000002D0012070BD90A303002DE9F04F0468DFF8FC
S315000002E06C90D4F8088083B0C845D0E9024505EB88
S315000002F004171BD11646426894421EDA9A464FF0FE
S31500000300FF3301220C994FEA041B45F80B60C7F82E
S3150000031008A0F9607B60836880F828201344836016
S3150000032000200D9B7B6003B0BDE8F08F0C9C009411
S31500000330C0470028F4D00120F5E70846024932F00C
S3150000034051FC0120EFE700BF90A303008D020000DF
S31500000350012A1CDD30B586460D46A0F1040C0CEBD7
S31500000360820C2A4673460024196853F8040F81420A
S3150000037006DA012443E90101D2E90001C2E90010CD
S31500000380634502F10402EFD1002CEAD130BD70477B
S31500000390014B0360704700BFB8100400844670B478
S315000003A0E9B18968481C1CD0DCF8184001EB410112
S315000003B0DCF80C5004EB8100416805EB01118E68F6
S315000003C0B34204DBC9688A4201DC70BC70478068AE
S315000003D0411C00EB400004D004EB8000ECE7016A0E
S315000003E0E2E7002070BC704790F82830002B00F040
S315000003F0CE802DE9F04F82680446002A83B000F0D3
S315000004009C804FF0000084F828002ADD01460FE0AA
S3150000041047F82130636943F82100E368666A2B4494
S315000004205B68013146F82030A3680130834216DD4F
S31500000430E368050103EB001676682769B6F1FF3F0E
S315000004405B59E5D1013A47F82230636943F8220047
S31500000450636A43F82060A36801308342E8DC8800C1
S315000004605A1AD4E9043101441844FFF771FF0122F6
S3150000047000214FF0FF33D4F81880C4E90721C8F8EB
S31500000480083063691B68C8F80430E26802EB03129F
S315000004905268013208BF606A4FEA830208BF40F81B
S315000004A02310636A9B58C8F80030A368012B44DD0B
S315000004B04FF0010908E08846236A8B602562A3682D
S315000004C009F101094B4538DD6369E76853F829608E
S315000004D007EB0613D3F804B03201BA58BBF1FF3F5D
S315000004E00092D3E902232BD0636A43F826B0D4E9FD
S315000004F0062303EB430302EB830142F823B04E606D
S31500000500E5696B1CE361D8F800305B45D3DC4046F7
S3150000051007E0A36953F8267003EB86035F4533DCD7
S3150000052018468268531C02EB4206F2D185608A6047
S31500000530A36809F101094B45C6DC03B0BDE8F08F9D
S3150000054000212046FFF72AFF0546CDF804804FF02C
S31500000550000BB246DDF8008095B12E68A6EB0B01C4
S3150000056088450DDD29462046FFF718FF69680546D0
S315000005700901795831448B45B8BF8B46002DECD123
S315000005805646DDF80480AFE78A60856097E77047D6
S3150000059070B50546FFF728FFA868C8B12B6AAC6995
S315000005A003EB430314EB830313D00020EE6802E051
S315000005B014EB83030CD0D3E900521201B1589A68A8
S315000005C02944884238BF084602EB42030132EFD184
S315000005D070BD184670BD00BF2DE9F04305469BB0BF
S315000005E0FFF702FFD5F80880B8F1000F40F3C1808D
S315000005F00024614F1DE0232C21DD3D2C04F11D015B
S31500000600CCBF2A21C9B2EB68260103EB0412D068DD
S315000006109B59029090686A6A019052F824603846A5
S315000006202246009630F068FCD5F808800134A045D3
S3150000063009DD092CDFDC04F13001C9B2E3E704F17E
S315000006405701C9B2DFE7B8F1000F40F392800027E7
S315000006505026686AEB68043800EB880C1A6850F874
S31500000660044FD96822449642B8BF16468F42B8BF97
S315000006700F46604503F11003F0D1002F76DB00240E
S3150000068050222E2105A839F0A2FDB8F1000FD8BFDF
S315000006904FF0000C4EDD00218E46D5F80CC0DCF87C
S315000006A00830A34239DCDCF80C30A34235DB6B6A38
S315000006B053F821305A1C30D0DCF8000003EB8309D4
S315000006C0034403EB83031A014FEA091999FBF6F376
S315000006D092FBF6F2934286441FDA05A8013B01F12C
S315000006E0300903440DF1130002444FFA89F903E07F
S315000006F021209A42187010D013F9010F2E28F7D135
S3150000070009292DDD23292DDD3D2901F11D00CCBF51
S315000007102A2040B29A421870EED1013141450CF1BF
S31500000720100CBCD10EF2FF33002BB8BF0EF2FE73D5
S315000007304FEAA32C4FF0000E104811492246092C0F
S31500000740C8BF014605AB0F48CDF800C001348DF88F
S3150000075064E030F0D1FBA74208DBD5F808808FE7CC
S315000007604846C6E701F1570040B2C2E71BB0BDE8F4
S31500000770F0830027502682E7B4A30300840D04000B
S31500000780B0A30300F0A30300F8B5144605460F46D0
S315000007901E46FFF729FE002C08DBAB68A34205DDE9
S315000007A06B6A002053F824303360F8BD2246384681
S315000007B0AB68024932F016FA0120F8BD00A4030026
S315000007C00120704700207047836B0BB11C2118472E
S315000007D010B539F04FFB00BF836B0BB102211847F0
S315000007E010B539F047FB00BFF0B50F698FB0002F89
S315000007F042D0224B0C461A68064613F0F1FE204BF7
S31500000800214604461A68304613F004FF237A05464B
S31500000810012B20D0092B13D1214602A813F014FF77
S31500000820294608A813F010FF23682DB32C68384614
S3150000083008AA02A9009400F0A3F800200FB0F0BDAA
S315000008401846746933F088FE0E4902463046A047C2
S3150000085001200FB0F0BD214602A813F0F5FE29468F
S3150000086008A8246813F0F0FE35B121462B6808AAC3
S3150000087002A800F01FF9E0E739F0FCFAE0100400E6
S31500000880DC1004002CA403002DE9F0410F698EB0A2
S31500000890002F4CD0274B0C461A68064613F0A0FED4
S315000008A0254B214604461A68304613F0B3FE237AD8
S315000008B00546012B2AD0092B1CD1214602A897F9FF
S315000008C0016097F9007013F0BFFED4F8008008AC01
S315000008D02946204613F0B8FE4DB32B683946CDE9BC
S315000008E000433046434602AA00F064F900200EB0E9
S315000008F0BDE8F0811846746933F02EFE0F490246B2
S315000009003046A04701200EB0BDE8F081214602A87E
S3150000091013F09AFE294608A8246813F095FE35B10F
S3150000092021462B6808AA02A800F0FCF8DEE739F099
S31500000930A1FA00BFE0100400DC1004002CA40300A0
S3150000094010B50446034B044A044913F021FE204621
S3150000095010BD00BFE9070000450C0000C9070000F4
S3150000096010B50446034B044A044913F011FE204611
S3150000097010BD00BF89080000390D0000D90700002E
S315000009802DE9F84F8C46D1F800E011688E4540F00D
S315000009908780BEF1000FD8BF4FF0010C18DD64460A
S315000009A06646002552F8041F56F8047FB94277D1EF
S315000009B00135AE45F6D10CEB8E014FF0010C54F823
S315000009C0042FA14202FB0CFCF9D1BCF1000F5EDD45
S315000009D00A9A0125334E03F1FF3E541E2AE012F116
S315000009E0804249F10009D20F42EA490218F11F0F6D
S315000009F0D0F810904DDB05FA0AF808F1FF384FEAF7
S31500000A00D27B42FA0AFA0BEB680B08EA02025A4555
S31500000A10C8BF0AF1010A4768CA44BA45B8BFBA4610
S31500000A20826802319245A8BF9246C91A8C4504F8DD
S31500000A3001AF2CDDD0F81880C26871461EF9019FFF
S31500000A4028EAE87AA9EB0209426909FA0AF94A454D
S31500000A50C8F1000A2AEAEA7A13D082FB0929B9F119
S31500000A60000FBCDA921969F10009B9F1000F04DA36
S31500000A706FF00047D21949F10009D20F42EA490244
S31500000A80B4E7B2F1004FE8D16FF00042AEE7BDE83F
S31500000A90F88F40F26711044B044A054834F0ECFB2A
S31500000AA039F0E8F9010000C058A4030068A4030067
S31500000AB0C4A40300F8B507681468A7422ED1002F16
S31500000AC0D8BF012218DD844604464FF0000E52F8C6
S31500000AD0046F54F8045FAE4220D10EF1010E774543
S31500000AE0F5D1012200EB87005CF8044F844504FB36
S31500000AF002F2F9D1002A10DD00209FED097AF1EC0F
S31500000B00017AF5EEC07AF1EE10FA48BFF0EE477AB8
S31500000B1001308242E3EC017AF1DCF8BD39F0AAF942
S31500000B2000000000F8B507681468A7423DD1002F01
S31500000B30D8BF012218DD844604464FF0000E52F855
S31500000B40046F54F8045FAE422FD10EF1010E7745C3
S31500000B50F5D1012200EB87005CF8044F604504FBE9
S31500000B6002F2F9D1002A1FDD0020B1EE087ADFED8E
S31500000B70106A0BE0F5EEC07AF1EE10FA01D5F0EE50
S31500000B80667A01308242E3EC017A0DDDF1EC017AFE
S31500000B90F4EEC77AF1EE10FAECDDF1EE087A0130E8
S31500000BA08242E3EC017AF1DCF8BD39F063F900BF6B
S31500000BB0000000002DE9F041069CD2F8008025686F
S31500000BC0A8453CD1B8F1000FD8BF4FF0010E1BDD90
S31500000BD0A646154614464FF0000C5EF8047F55F8FD
S31500000BE0046FB7422BD10CF1010CE045F5D14FF063
S31500000BF0010E02EB880254F8045F944205FB0EFED8
S31500000C00F9D1BEF1000F18DD079A5C1E551E08E0EB
S31500000C108445B8BF84460232D21A724505F801CF20
S31500000C200BDA224614F901CF6145F1DA8C4602321D
S31500000C30D21A724505F801CFF3DBBDE8F08139F031
S31500000C4019F900BF2DE9F043D1F8108083B0B8F14F
S31500000C50000F64D0C46807462368002220469B69BB
S31500000C600E4698470546C0B1236831460022204605
S31500000C70DB6998470646E0B12B78092B1CD0236820
S31500000C80294620465B6A98472368204631465B6AB8
S31500000C909847002003B0BDE8F0837B2321493846FE
S31500000CA07C69214A00912149A047012003B0BDE893
S31500000CB0F0837E231E49F2E795ED037AD0ED037AA1
S31500000CC0C7EE277A17EE900A37F0C2FB08F118092B
S31500000CD008F1140741EC100B4946384631F000FC88
S31500000CE096ED037ADFED136AC6EE877AF8FE677A29
S31500000CF07F21FDEEE77A3369C8F8081017EE901ADF
S31500000D006FF07F020B449342B8BF1346C8F8043015
S31500000D102B69C8F80C303369C8F81030AFE739F0E2
S31500000D20A9F800BF7CA5030028A5030064A503005D
S31500000D30E8A90300000000002DE9F0430F6983B025
S31500000D40002F3ED0C66805463368002230469B69B0
S31500000D509847044648B30378092B1DD1B1EE087AAB
S31500000D60D0ED037AC7EE277A17EE900A37F070FBBC
S31500000D7041EC100B35F074FF59EC108B206937F0FD
S31500000D8055FB4B46424637F005FA37F053FE00F363
S31500000D900700387023697B703368304621465B6AEA
S31500000DA09847002003B0BDE8F083074928466C69E0
S31500000DB091230091054A0649A047012003B0BDE8EA
S31500000DC0F08339F057F800BF7CA5030028A503007F
S31500000DD064A50300836B0BB13C21184710B539F0AD
S31500000DE049F800BF2DE9F84FD0E90B65AE420B9CE0
S31500000DF000F349810F68002F40F32981012501EB9B
S31500000E00870751F8046FB94206FB05F5F9D11F684B
S31500000E10D4F800C0002F40F32A81012603EB870790
S31500000E2053F8041F9F4201FB06F6F9D1BCF1000FEF
S31500000E3004F1040440F3228101210023043C54F808
S31500000E40047F0133634507FB01F1F8DBAE4240F056
S31500000E501A818D4240F01781436893498B42C0F254
S31500000E60128147F6FE714FF6FC74D0F8089009EB34
S31500000E700106A64200F207818B4200F30481002D91
S31500000E8040F3E3800A9C023AA4F1020E0C9C02EBAA
S31500000E9045016FF000464FF0010C844D023C81E0A5
S31500000EA017F1804749F10009FF0F47EA4907B8F1F2
S31500000EB0000FC8F1000A00F3E88018F11F0FC0F216
S31500000EC0EB800CFA0AF909F1FF3947FA0AF84FEAFA
S31500000ED0690A09EA07090AEBD777B945C8BF08F1D5
S31500000EE00108D0E909974B4500F0A18083FB093939
S31500000EF0B9F1000F7BDB13F1804349F10009DB0FE9
S31500000F0043EA4903002FC7F1000900F3BE801F37EB
S31500000F10C0F2C2800CFA09FA0AF1FF3A4FEAD37B13
S31500000F2043FA09F70AEA03090BEB6A0AD145D4BF6B
S31500000F303B467B1CD0E9049743444B457ED083FB5C
S31500000F400939B9F1000F5FDB13F1804349F100095C
S31500000F50DB0F43EA4903002FC7F1000800F3958031
S31500000F601F37C0F299800CFA08F909F1FF3909EA2E
S31500000F70030743FA08F8DB0F03EB69039F42C8BF78
S31500000F8008F10108C768036BB844C76AB845B8BF1B
S31500000F90B8469845A8BF9846914224F8028F54D087
S31500000FA0D0E9013932F9027FD0F818801F443EF9A2
S31500000FB0023F07FA08F74B44D0F81C9003FA08F3EF
S31500000FC04F45D0F820802CD087FB0979B9F1000F66
S31500000FD0BFF666AF7F1969F10009B9F1000F02DAB1
S31500000FE0BF1949F10009FF0F47EA49075FE75B1997
S31500000FF069F10009B9F1000F02DA9B1949F10009FC
S31500001000DB0F43EA49037DE75B1969F10009B9F192
S31500001010000F02DA9B1949F10009DB0F43EA490385
S3150000102099E7B7F1004FCFD16FF000473FE7B3F133
S31500001030004F7FF45BAF6FF0004363E7B3F1004FFF
S315000010407FF47DAF6FF0004385E7BDE8F88F1F683A
S31500001050D4F800C0002FC8BF01253FF7DEAEBCF1B3
S31500001060000F4FF0010504F1040405DCF4E6BCF1C1
S31500001070000F04F1040403DD0126DDE60121E5E6A7
S31500001080012D3FF4E9AE38F0F5FE4FF4B371084B8D
S31500001090084A094834F0F0F840F26711074B054A50
S315000010A0054834F0E9F800BF0280FFFF010000C0E8
S315000010B090A5030068A40300C4A4030058A4030079
S315000010C0F8B55368946918449368A0401944D369E5
S315000010D0A1408342146A00F0A78080FB0303002B23
S315000010E075DB10F1804043F1000CC30F43EA4C035B
S315000010F0002CC4F1000600F3AB801F34C0F2AF80B1
S315000011004FF0010E0EFA06FEDD0F0EF1FF3E546A99
S3150000111043FA06FC0EEA030305EB6E0E7345C8BFE1
S315000011200CF1010C8C42906A00F0858081FB04145E
S31500001130002C5BDB11F1804144F10004C90F41EA48
S3150000114044010028C0F1000500F382801F30C0F280
S315000011508680D2E904300124AC40013C41FA05FE08
S31500001160651005EBD1750C40AC42D4BF71460EF14B
S31500001170010161448B4265D083FB0131002944DBC8
S3150000118013F1804341F10001DB0F43EA41030028DC
S31500001190C0F100045CDC1F3061DBD2E90B65012184
S315000011A0D76801FA04F2013A42FA01F143FA04F06F
S315000011B01A4001EBD3739A42C8BF01303844B0429B
S315000011C0B8BF3046A842A8BF284640B2F8BD274D52
S315000011D0401963F10003002B04DA6FF00045401953
S315000011E043F10003C00F40EA430381E71F4BC918D0
S315000011F064F10004002C04DA6FF00043C91844F1CE
S315000012000004C90F41EA44019BE7184C1B1961F120
S315000012100001002904DA6FF000441B1941F10001B6
S31500001220DB0F43EA4103B2E7B3F1004F7FF455AF5A
S315000012306FF000435CE7B1F1004F7FF477AF6FF0DA
S3150000124000417EE7B3F1004F96D16FF000439EE771
S315000012504FF4B371064B074A074834F00DF840F2D5
S315000012606711064B034A044834F006F8010000C033
S3150000127090A5030068A40300C4A4030058A40300B7
S315000012802DE9F04104260D6803688CB09D42B8BF75
S315000012901D4616700F4601680095A94200F30481A9
S315000012A06E1A14460ED0002D40F3FE800023012254
S315000012B0EC4602E0AB4200F0F78001339E424CF868
S315000012C0042FF7D101AB8A00011D03EB860038F02D
S315000012D0EFFF3A680695AA4200F3E680A81A00F0E6
S315000012E0CA80002D40F3E080002301210DF1180C87
S315000012F002E0AB4200F0D880013398424CF8041F5C
S31500001300F7D107AE391D920006EB800038F0D0FF0A
S31500001310009FDDF81880B84500F0B8806B1E9F422C
S3150000132040F3C2800CAA02EB8302984552F82C1CAB
S3150000133040F3BA809C4606AAAE0002EB85020DEB8E
S31500001340850552F80409884200F0B080012940F072
S315000013508B8006A8EC46804602229FED5B7B2270BE
S31500001360012208EB060E84ED147B84ED167BDCF877
S3150000137000102266664406E0226E013B05FB02F27F
S315000013805D1C22666CD0994240F38E80D8F800200E
S3150000139056F804799A4240F387805EF80459BD42B4
S315000013A0EAD09E1C08EB86070CEB86060AE09A42FA
S315000013B07ADDE06D57F8045D013B00FB05F5581C2E
S315000013C0E5654DD099426FDD56F8045D012DEED0EE
S315000013D003F1020E08EB8E070CEB8E0E06E0A56DF0
S315000013E0013B06FB05F55E1CA56539D099425BDD20
S315000013F09A425EF8045D57DD57F8046DAE42EED0B2
S315000014009E1C0CEB860708EB86060AE08B424BDA3D
S31500001410606D57F8045D013B00FB05F565655D1CD5
S315000014201ED0934240DA56F8045D012DEED09E1C84
S3150000143008EB86070CEB860606E0256D013B00FBF4
S3150000144005F5581C25650BD099422DDD9A4256F8B4
S31500001450045D29DD57F8040DA842EED0042323705D
S3150000146001200CB0BDE8F0810128F9D1E84603223D
S315000014700DF1180C71E707AE391D3046920038F0B1
S3150000148017FF009FDDF8188047450AD1314601A8AD
S31500001490BA0038F072FE20B9012323700CB0BDE803
S315000014A0F0816B1E7FF53BAF38F0E4FCBCF1010C1C
S315000014B0FAD3BC45F8DAC44555F8041DFFF641AF2A
S315000014C0F2E700BFAFF3008001000000010000005A
S315000014D010B50446034B044A044913F059F8204654
S315000014E010BD00BF2D23000051250000D50D0000C2
S315000014F02DE9F0438DB0002A00F081801D46002BB7
S315000015007DD004231446026800939A4277DC9B1A26
S315000015100E460DD04FF0000C0127EE4602E0BCF15E
S31500001520040F6CD00CF1010C63454EF8047FF6D124
S31500001530011D01A8920000EB830038F0B9FE0423D8
S31500001540326806939A425ADCD2F104000ED04FF06C
S31500001550000C01230DF1180E02E0BCF1040F4ED071
S315000015600CF1010C60454EF8043FF6D107AB311D76
S31500001570920003EB800038F09BFE04F1100C012270
S3150000158003216346009E0DF1140EB14237DA5EF870
S31500001590040D013943F8040D4F1C1A6100FB02F2D9
S315000015A0F3D105F1100E724601230321069F0DF1BA
S315000015B02C08B94223DA58F8040D013942F8040D13
S315000015C0136100FB03F3481CF3D1002168468946EA
S315000015D00DF118088F4250F8043F10D058F8042F28
S315000015E09A4207D0012B0CD0012A08D14EF821903F
S315000015F045F82130013104290AD0B142EAD138F048
S3150000160039FC4CF8219044F8212001310429F4D109
S315000016100DB0BDE8F08300BF2DE9F04F0F4616462A
S31500001620B3B0194622AA2AAB044638463D9D0D960C
S31500001630FFF75EFF04232A681C939A4200F3E280B8
S31500001640D2F104000BD0002301261CA902E0042BD2
S3150000165000F0D8800133984241F8046FF7D11DABF2
S315000016609200291D03EB800038F022FE1C9E94EDAB
S315000016700D7A002ED4ED0E6A40F3C480DDE92AAB64
S3150000168000211F9C1E9A209D04FB02F305FB03F319
S315000016901893319B0A944FEA8309299B1D984FEAB8
S315000016A0830805FB04F30C461093229B17910393C2
S315000016B0239B84420493249B0593259B0693279B97
S315000016C00F93289B0C93DDE92C7302932F9BBE4648
S315000016D00E93309B0B932E9B1993269BCDE91511E8
S315000016E01A9380F28C80012E00F08C80002A76DD21
S315000016F0022E00F087804FF0000CDDE91613159FCF
S315000017001B900A9800285FDD032E7BD00020CDE9D0
S315000017100713CDE91117CDE9132309973E9A0999C5
S31500001720089B02EB81073C9A0799019702EB81011E
S315000017300D9A02EB8302002331E0039FBC4261DA7B
S31500001740049F67455EDD059F87425BDD069F9F42DE
S3150000175058DD5445D2ED007A54DAE34552DD86452C
S3150000176050DD029F9F424DDD91ED006A042E77EE1B
S31500001770867A47D1F4EE477AF1EE10FA48BFF0EEDA
S31500001780477AF4EE676AF1EE10FA48BFF0EE667A31
S31500001790019F0133E7EC017A4944424401979D4297
S315000017A0CBDC099B0B9A2B440993079B013013440E
S315000017B007930C9A089B134408930A9B9842ADDB47
S315000017C0DDE91117DDE9132310980CF1010C07442C
S315000017D00E98944501440F98034492DB1B98159B81
S315000017E0189901340B4415931999169B84420B449E
S315000017F016931A99179B0B441793FFF674AF33B0E1
S31500001800BDE8F08F38F036FBF0B52DED028B93ED89
S315000018100D8AD3ED0E8A1B78C3B0DDE94A458DEDFE
S31500001820358ACDED368A21464C9E1BB304A812F0AC
S315000018300BFF002C00F08E8029460AA8276812F0BC
S3150000184003FF002D00F0868010AC314620462D683F
S3150000185012F0FAFE002E7DD0019433683A460293C8
S3150000186004A90AAB009528A8FFF7D6FE43B0BDEC45
S31500001870028BF0BD16A812F0E7FE002C6AD02946AE
S315000018801CA8246812F0E0FE002D63D0314622A881
S315000018902D6812F0D9FE002E5CD03068169E002E00
S315000018A04ADD012316AA02EB860652F8041FB2424D
S315000018B001FB03F3F9D11C9E229F002E46DD4FF05B
S315000018C0010E1CAA02EB860652F8041F964201FB83
S315000018D00EFEF9D1002F3FDD4FF0010C002222A9A8
S315000018E051F8046F0132BA4206FB0CFCF8DB9E4548
S315000018F030D19C452ED1002BB8DD2246014604EBA3
S315000019008303B2EC017AF5EC017A77EE877AB4EECE
S31500001910678AF1EE10FA78FE277AF4EE678AF1EE1E
S3150000192010FA48BFF0EE687A9342E1EC017AE8D10A
S3150000193043B0BDEC028BF0BD1C9E0123002E229FFE
S31500001940BDDC002FD9DD4FF0010EC5E7002FFADC14
S31500001950012BD2D038F08EFA4FF0010CC7E700BF4A
S315000019602DE9F04F0F461446BBB019462AAA32ABF2
S3150000197005463846459E1194FFF7BAFD04233268A2
S3150000198024939A4200F3E781D2F104000BD000239E
S31500001990012424A902E0042B00F0DD8101339842E2
S315000019A041F8044FF7D125AB03EB80009200311DBF
S315000019B038F07EFC249B002B029340F3CC812799C0
S315000019C0269E002201FB06F328981F9100FB03F3D5
S315000019D01C93399B01905B000B93319B259C5B000C
S315000019E00C9300FB01F32A99964607912B99A8467A
S315000019F008912C99924609912D9991460A91DDE913
S31500001A002F01149132991546039133990491349913
S31500001A10059135990691379915913899169018467A
S31500001A2023461391369973451D912E991E9140F3C5
S31500001A305681029A012A00F08E81002E40F34481DD
S31500001A40029A022A00F087810246209330465146C8
S31500001A504C4600274FF0010C2B461646CDE9219A3D
S31500001A60DDF87CB02395BBF1000F40F31D81029A8F
S31500001A70032A00F07081469A8946023A12929A46E3
S31500001A8000252246CDE91803CDE91A161794CDF89C
S31500001A9040B0129B002103EB4206449BCDE90D2A80
S31500001AA003EB4904119BCDF83C9003EB4A000096EA
S31500001AB08EE013F1804349F10009DB0F43EA490345
S31500001AC0BAF1000FCAF1000900F3D3801AF11F0F13
S31500001AD0C0F23A810CFA09FA0AF1FF3A4FEAD37BCF
S31500001AE043FA09F90BEB6A0B0AEA03035B45C8BF25
S31500001AF009F10109D8E9093A934200F0178183FBFD
S31500001B000232002AC0F2EE8013F1804342F1000255
S31500001B10DB0F43EA4203BAF1000FCAF1000200F3F9
S31500001B20A8801AF11F0FC0F20F810CFA02FA0AF10F
S31500001B30FF3A4FEA6A0B43FA02F20AEA030A0BEB90
S31500001B40D37BDA45C8BF01324A44D8E90439934207
S31500001B5000F0F38082FB0332002AC0F2D28013F138
S31500001B60804342F10002DB0F43EA4203B9F1000F62
S31500001B70C9F100027DDC19F11F0FC0F2E5800CFAF5
S31500001B8002F909F1FF394FEAD37A43FA02F20AEB76
S31500001B90690A09EA03035345C8BF0132D8F80C3075
S31500001BA00B9E1A44D8F82C3034449A42B8BF1A46D1
S31500001BB0D8F830300C9E9A42A8BF1A46029B304491
S31500001BC0042B40F0C880009B013123F8022F0093BC
S31500001BD0019B8B4254DD079AD8F80430724540F3D6
S31500001BE0BA80089ABA4240F3B680099AAA4240F3EC
S31500001BF0B2800A9A8A4240F3AE80B0F90090D8F8D3
S31500001C0008A09944039B734540F3A580049BBB42FF
S31500001C1040F3A180059BAB4240F39D80069B8B421F
S31500001C2040F39980D8F81830B4F9002009FA03F97E
S31500001C3052449A40D8E9073A4B4571D089FB03399B
S31500001C40B9F1000FBFF635AF444E9B1969F1000993
S31500001C50B9F1000F04DA6FF000469B1949F100094B
S31500001C60DB0FBAF1000F43EA4903CAF100097FF717
S31500001C702DAF4FF4B3713A4B3A4A3B4833F0FCFA76
S31500001C80DDE90D2ADDF83C901A44139B0135994491
S31500001C90149B9A44109B9D42FFF6FBAEDDE91A1693
S31500001CA0179C9B46DDE91803159A01371144169ACD
S31500001CB0874234441344FFF6D6AEDDE9219A324614
S31500001CC006461046209B239D1C9A0EF1010E914458
S31500001CD01D9A734592441E9A15443FF7AAAE3BB02F
S31500001CE0BDE8F08F1D4E9B1962F10002002A04DA4E
S31500001CF06FF000469B1942F10002DB0F43EA4203F4
S31500001D0009E7164E9B1962F10002002A04DA6FF009
S31500001D1000469B1942F10002DB0F43EA420325E726
S31500001D20B9F1004F8AD16FF00043C9E6B2F1004F16
S31500001D307FF4E5AE6FF00043EDE6B3F1004F7FF4BC
S31500001D4009AF6FF0004311E740F26711074B054AF0
S31500001D50054833F091FA38F08DF800BF010000C055
S31500001D6090A5030068A40300C4A4030058A40300BC
S31500001D701A462DE9F04F5B6AADF5037D0B936E9322
S31500001D80936AD2F804B006936993536997690593E9
S31500001D906F93D36AD2F808A007936A93136BD2F8AD
S31500001DA01C80D2F820900C936B93D368DDE98C6489
S31500001DB08E9DCDF8C0B17197CDF8C8A1CDF8B08190
S31500001DC0CDF8B49108931269314658A8CDE973321B
S31500001DD0099212F039FC214660A812F035FC68AA77
S31500001DE060A958A8FFF74CFA0246287A072800F09F
S31500001DF0248109280BD032F0AFFB2A7A0146B1487C
S31500001E002FF07AF801200DF5037DBDE8F08F3146FD
S31500001E10002A40F05B8128A812F016FC002E00F084
S31500001E207B82336821462EA80A9312F00DFC002C03
S31500001E3000F072822368294634A80D9312F004FC40
S31500001E40DDE9083293422E6800F36682069B7F33F3
S31500001E50FF2B00F26182079B7F33FF2B00F25C822F
S31500001E602899002940F33882012328AA02EB810130
S31500001E7052F8040F914200FB03F3F9D12E9C3498DB
S31500001E80002C40F3448201212EAA02EB840452F86E
S31500001E90045F944205FB01F1F9D1002840F3358235
S31500001EA00124002534AA52F804CF013585420CFBE3
S31500001EB004F4F8DB994240F02F82A34240F02C82D2
S31500001EC0002B40F3DA800A9ACAF10004501EC318A8
S31500001ED00D9A0D93012302F1FF3E721E0A92CBF179
S31500001EE00002109203FA02F2013A1146C9F1000506
S31500001EF0119203FA04F2AB405E1E0F944B10541E6F
S31500001F001293631014937310DFF8BCC10E951394EB
S31500001F1015936EE012F1804244F10004D20F42EABA
S31500001F204402BBF1000F00F3E9811BF11F0FC0F261
S31500001F30DE81119C109904EA0205129C04EBD2740E
S31500001F400A41A542C8BF01329F4200F0BE8187FB0D
S31500001F500334002CC0F2AA8113F1804344F100043B
S31500001F60DB0F43EA4403BAF1000F00F3C7811AF10D
S31500001F701F0FC0F2BC81139901EA0305149901EB06
S31500001F80D3740F990B41A542C8BF0133134498453A
S31500001F9000F0858183FB0832002AC0F2718113F1BB
S31500001FA0804342F10002DB0F43EA4203B9F1000F1E
S31500001FB000F3A48119F11F0FC0F29981159A0E99A9
S31500001FC002EBD37206EA03040B419442C8BF013305
S31500001FD00C9A1344089A9342B8BF1346099A93423F
S31500001FE0A8BF13460A9A02F8013F0D9B0A92834244
S31500001FF043D0069B10F9012F079D1A441EF9013F95
S315000020000B9C2B44A240A340059C944200F03181D6
S31500002010059C82FB0424002CBFF67CAF12EB0C025D
S3150000202064F10004002C04DA6FF00041521844F108
S315000020300004D20F42EA440273E7314612BB46A8B7
S3150000204012F002FB002E00F0678121464CA836688C
S3150000205012F0FAFA002C00F05F812946246860A885
S3150000206012F0F2FA60ABCDE900432B6832460293D8
S3150000207046A94CAB68A8FEF7B5FE00200DF5037D1A
S31500002080BDE8F08F3AA812F0DFFA002E00F0448186
S31500002090214640A8366812F0D7FA002C00F03C81A1
S315000020A02946246860A812F0CFFA60ABCDE9004358
S315000020B02B68324602933AA940AB68A8FFF750FC5A
S315000020C0DBE700BFA0A50300010000C016A812F0C0
S315000020D0BBFA002E00F02081336821461CA80A9323
S315000020E012F0B2FA002C00F017812368294622A8C4
S315000020F00B9312F0A9FA60AB58AA1CA916A8D5F83A
S3150000210000B0FFF7F5F90423229A52939A4200F39E
S315000021100381981A0BD00023012452A902E0042B54
S3150000212000F0FA800133984241F8044FF7D153ABDF
S3150000213003EB8000920023A938F0BAF8529B002BDB
S31500002140099340F3E980539D002D96DD099B012BF1
S3150000215000F0E2804FF00009C846549B002B40F384
S315000021608280099A022A00F0D780CDF81CB04FF081
S31500002170000AC3461F4608FB03F40E95DDF854918A
S31500002180B9F1000F65DD099B032B00F0C580002522
S3150000219004FB09F80C94CDF820900D97569B079AEE
S315000021A0002403FB08290693CDF8149046E0589FB7
S315000021B05F9A5F45DDE9599EDDE95B13DDE95D6008
S315000021C040F3AA80D14540F3A780AE4540F3A480F2
S315000021D0A14240F3A180DDE9619E0A9904FB02F267
S315000021E00BFB03130AFB0633DDE9656105FB0033D0
S315000021F0609F98565F45679ADDE963C340F38C801C
S31500002200D14540F38980AE4540F38680A44540F32E
S3150000221083800B9F04FB02F20BFB03730AFB06335E
S3150000222005FB01339956099B042B75D168AAFEF765
S3150000223047FF059B013403F8010B0593069BA34258
S31500002240B5DC089B01359D4208F10108A6DBDDE9F6
S315000022500C470AF1010ABA4504F101048EDBD8469F
S315000022600E9DDDF81CB008F10108A845FFF675AF14
S3150000227003E7B4F1004F7FF4CBAE6FF0004250E6B7
S3150000228013EB0C0362F10002002A04DA6FF000413E
S315000022905B1842F10002DB0F43EA420386E6B8F11F
S315000022A0004F7FF477AE6FF000437FE613EB0C032D
S315000022B064F10004002C04DA6FF000415B1844F16D
S315000022C00004DB0F43EA44034DE6B7F1004F7FF409
S315000022D03EAE6FF0004346E62E9C0123002C349858
S315000022E03FF7D1AD00287FF7EEAD0121D8E540F2EA
S315000022F067110A4B0A4A0B4832F0BEFF4FF4B3711E
S31500002300094B074A074832F0B7FF0124D2E50028F7
S31500002310EBDC012B3FF4D7AD37F0ACFD58A403003E
S3150000232068A40300C4A4030090A503002DE9F047A8
S3150000233084B0D1E904A9BAF1000F3FD0204B0C4676
S315000023401A68054612F04CF91E4B21461A680746D4
S31500002350284612F045F91C4B8046214628461A6845
S3150000236012F058F90646007A01281AD0092801D039
S3150000237007280BD153464A4621462846CDE9018611
S315000023800097FFF7F5FC04B0BDE8F08732F0E4F8FB
S31500002390327A01460D482EF0AFFD012004B0BDE8AB
S315000023A0F087284653464A462146CDE901860097DE
S315000023B0FFF72AFA002004B0BDE8F08737F05AFD8F
S315000023C0EC100400E8100400E4100400A0A50300CB
S315000023D02DE9F04F2DED068B834681B08A46DDE967
S315000023E01054194610461E46174630F0E5FB80F09D
S315000023F0010020702B78092B0AD0072B08D0012B5F
S3150000240000F08180002001B0BDEC068BBDE8F08FA6
S315000024103B695B42A36233695B42E3622B692363D8
S315000024202B78072B69D014234FF00008DFF818919A
S31500002430636297ED03AA96ED038AB4EEC8AAF1EE9D
S3150000244010FA54BF1AEE100A18EE100A36F000F809
S3150000245002460B4635F09EFE06460F4618EE100A5B
S3150000246035F0F6FF32463B4636F074F941EC190B6F
S31500002470E86835F0EDFF42464B4636F041F8024635
S315000024800B463046394636F065F941EC180B1AEE24
S31500002490100A35F0DDFF32463B4636F05BF904F1B3
S315000024A0040904F1140841EC100B4946404630F08B
S315000024B02FF8B0EE490AF0EE690A04F1080104F1BA
S315000024C0180030F025F804F1200104F11C00B0EEEC
S315000024D0480AF0EE680A30F01BF82A46584604F11E
S315000024E010039AF80010109304F10C0301B0BDEC30
S315000024F0068BBDE8F04F30F05BB90F234FF00008B4
S31500002500DFF8489094E79AF80030012B11D0032B9E
S315000025100AD0022B0BBF4FF07E536FF40002074A1E
S31500002520074B6263A3636DE70022064B6263A363F6
S3150000253068E70022024B6263A36363E7000080BF83
S31500002540FFFF7F7F0000C040000030410000E040F8
S315000025502DE9F0430B6983B0002B50D04B690D4633
S31500002560002B4CD0C46806462368002220469B698F
S315000025709847074600283CD0236801222946204672
S315000025809B6998478046002836D023680022294652
S315000025902046DB6998478146F0B1CDF800902B695B
S315000025A030460193696943463A46FFF711FF0546EF
S315000025B070B92368394620465B6A984723684146C6
S315000025C020465B6A98472368494620465B6A9847D7
S315000025D0284603B0BDE8F0835C230A49012530464E
S315000025E07469094A00910949A047284603B0BDE825
S315000025F0F08356230649F1E759230649EEE737F0FB
S3150000260039FC00BFE8A90300BCA5030064A50300CC
S31500002610F0A5030004A603002DE9F04F2DED028B73
S315000026200B68044689B0002B6AD0D3F800B0BBF122
S31500002630010F65DD4B688946002B6AD0D3F8008010
S31500002640B8F1010F48D1C56800222B6828469B695E
S3150000265098470646002873D02B680022494628462C
S31500002660DB699847824600286DD00078337883422C
S3150000267009D051E02B68394628465B6A08F1010803
S315000026809847C34562D02B684246494628469B690F
S3150000269098470746002800F0CB803046394630F090
S315000026A08BFA002800F0C78030783B78834240F0F0
S315000026B0C580092BDED132693B699A4240F0E08041
S315000026C096ED037AD7ED037AB4EE677AF1EE10FA57
S315000026D0D0D04923704915E0456901266F4B704AF1
S315000026E0CDE901380092204633236E4A6E4903969F
S315000026F0A8470127384609B0BDEC028BBDE8F08F2C
S3150000270032236A49656920460091664A6849A847A6
S31500002710EFE798464569E0E7676931F01DFF054632
S31500002720307831F019FF03466249634ACDE9025316
S315000027300092019120463E235A4A6049B847D8E79D
S3150000274038235F49DEE73B235E49DBE79AF8000062
S31500002750012800F08780092840F095802821A36B86
S31500002760204698474FEA8B018346C9F81000236C30
S3150000277020460BF12402984707460028BAD11422B6
S3150000278033695B42CBF80830DAF81030CBF82020FA
S31500002790CBF80C30F06835F05BFE02460B46CDE90F
S315000027A0042335F0F7FC8046DAF80C00894635F04C
S315000027B04FFE0022444B35F0A3FE02460B46404630
S315000027C0494635F0C7FF42464B4641EC180BDDE95A
S315000027D0040135F0BFFF0BF118090BF1100841ECAD
S315000027E0100B494640462FF093FEB0EE480AF0EE35
S315000027F0680A0BF11C010BF114002FF089FE0BF196
S3150000280004033946009320465B4652462FF0D0FF1C
S31500002810074600287FF46EAF2B68314628465B6A70
S3150000282098472B68514628465B6A9847002761E718
S315000028304123264966E74223254963E7666931F065
S315000028408BFE0546387831F087FE03462149194A42
S31500002850CDE902530092019120464323114A1749BC
S31500002860B04746E72046236C4FEA8B0107AA9847F4
S31500002870074600287FF43EAF079BC9F81030CBE728
S31500002880472315493EE7656931F066FE134902465E
S315000028902046A8472DE700BF6CA70300B0C0030081
S315000028A074A6030018A6030058A6030048A6030052
S315000028B064A50300C4A60300E0A60300A8A60300BF
S315000028C088A60300E8A90300000030417CA50300A8
S315000028D0F0A603001CA7030028A70300A4A7030073
S315000028E084462DE9F04F89B0C06A0492DCF83020A6
S315000028F0129D904200F31681DCF8044004F17F0239
S31500002900FF2A00F20F810F680122002F0ADD01EB7A
S31500002910870751F8040F8F4200FB02F2F9D1002A13
S3150000292000F0EF80E64605F1FF3A1E1F0AEB0203B0
S315000029300693C5F101030593049B079606EB8309ED
S31500002940059BDEE9067104FA07F2914203EB0A0CD5
S31500002950DEF8203000F0C68082FB012000284FEA16
S31500002960E178C0F2A18012F1804240F10000D20F5E
S3150000297042EA4002002BC3F1000600F3C5801F3374
S31500002980C0F2C980012303FA06F5013DD30F03EB1C
S31500002990650305EA020032419842C8BF01326B1056
S315000029A00193049B002B49D0CDF80CE00798DDF885
S315000029B004E0CDF808A0009512E013F180434BF136
S315000029C0000BDB0F43EA4B03009D0EEBD37B03EAC0
S315000029D0050A3341D345B8BF013381451A442BD08C
S315000029E050F8043F13F90C302344BB4099421AD0E7
S315000029F003FB08FA4FEAE37B01FB0BAAA3FB013BAF
S31500002A001AEB0B0BD9D5484D5B196BF1000BBBF1DB
S31500002A10000F04DA6FF000455B194BF1000BDB0F7A
S31500002A2043EA4B03D0E7B1F1004FE1D1F3466FF033
S31500002A300043DDF800A0CCE7DDE902AEDEE90431B3
S31500002A40934258D082FB0323002B3CDB12F18042D9
S31500002A5043F10000D30F43EA40030029C1F100020D
S31500002A6052DC1F3157DB012101FA02F0013843FA2B
S31500002A7002F1DA0F02EB600203409342D4BF08462C
S31500002A80481CDEE90B23DEF80C1001448A42B8BF6D
S31500002A900A469342A8BF13460AF8013F069B9A4589
S31500002AA02FD0DEF804404BE71F4D521960F10000AD
S31500002AB0002804DA6FF00045521940F10000D20FE9
S31500002AC042EA400256E71848121863F1000000284F
S31500002AD004DA6FF00043D21840F10000D30F43EA46
S31500002AE04003BAE7B1F1004F7FF436AF4FF0FF383D
S31500002AF06FF000423EE7B2F1004FA3D16FF0004302
S31500002B00ABE709B0BDE8F08F4FF4B371074B084A45
S31500002B10084832F0B1FB40F26711074B044A0548FA
S31500002B2032F0AAFB37F0A6F9010000C090A5030019
S31500002B3068A40300C4A4030058A403002DE9F04FC1
S31500002B400022A3B004460E4611F064FD0746007A43
S31500002B50012852D0092845D1D6F810803568D8F812
S31500002B602410636C002D00F09C8020462D68984749
S31500002B70002D814612DD4FF0000BA0F1040A5A46E3
S31500002B803146204611F02CFD002800F090800368A5
S31500002B900BF1010B5D454AF8043FF0D1D8E9020379
S31500002BA0D8E90426D8E906C4D8F82010CDE90C6483
S31500002BB0CDE90E12099039460B93CDF840C002A814
S31500002BC0D8E90032CDE9133211F03EFD38684B46A4
S31500002BD000902A4602A908A8FFF782FE002023B02B
S31500002BE0BDE8F08F656931F0B7FC324902462046F0
S31500002BF0A847012023B0BDE8F08F3568636C3169C2
S31500002C00002D49D02046D5F800909847B9F1000F1D
S31500002C10054611DD4FF00008A0F1040A4246314690
S31500002C20204611F0DDFC002841D0036808F10108B8
S31500002C30C1454AF8043FF1D14C4608A8394611F07F
S31500002C4003FD08983E6800282FDD012308AA02EB41
S31500002C50800052F8041F824201FB03F3F9D1002BD6
S31500002C60BCD0002105EB840CACF1040C06EB830010
S31500002C70DFED117A2A1F44B152F8043F0B4493ED5D
S31500002C80007A944577EE877AF6D1E6EC017A8642A9
S31500002C9001F10401ECD1A1E7204698472C460546F0
S31500002CA0CBE720469847814678E70123D9E737F0F6
S31500002CB0E1F800BFA4A703000000000010B5044619
S31500002CC00021034B034A11F063FC204610BD00BFF0
S31500002CD03D2B0000192600002DE9F04F164693B053
S31500002CE0002204460D4611F07BFC0122294681464E
S31500002CF0204611F075FC002207462946204611F0B1
S31500002D0089FC8046387A022840F0C98098F8080085
S31500002D10022840F0C48099F80800012800F0D2800B
S31500002D20092840F0C78006AD4946284611F08CFCBC
S31500002D303C680CAF41463846D9F8009011F084FC47
S31500002D40D8F800000699002E00F03482002940F3DE
S31500002D50D8820C9E4B1EB34240F0D382D4F800C0FA
S31500002D60BCF1000FC0F2CF828C4580F2CA8212AB52
S31500002D7003EB8C0353F82CEC4FEA8C08BCF1000FE4
S31500002D8000F0D582079C002E00F0BB8201220023B2
S31500002D908B460DF11C0A07E05B4500F0B2829E42AD
S31500002DA05AF8044F00F0AD8257F8041F8C4240F0E9
S31500002DB0A8820133634504FB02F2EDD101335B4582
S31500002DC0594680F2B18212AC04EB8304B44554F840
S31500002DD02C7C80F2968203F1010A4FF0010C4446E6
S31500002DE005EB8A0A07E09E421C465AF8047F40F328
S31500002DF088822B46A40048346C4454F8144CBC42D8
S31500002E0040F07F825D1C8D4207FB0CFCEBDB002A49
S31500002E1040F3198100210CFB0EFA09F1FF33A0F1F2
S31500002E20040BA3EB0C030493039263460846524635
S31500002E305D46CDF81490BCF1000F29DD4FF0000877
S31500002E40049CCDE9010104EB030A059C05EB81090D
S31500002E5004EB030BBEF1010F4FF000071AF9010F47
S31500002E600EDD01210BEB080494F9006064448642F0
S31500002E70C8BF0F4601F10101C8BF30467145F3D105
S31500002E8008F10108C44549F8047FE3D1DDE90101F1
S31500002E90039C0130844261441344CCD1D3E065697C
S31500002EA031F05AFBC14902462046A847012013B01B
S31500002EB0BDE8F08F656931F04FFBBD4902462046FB
S31500002EC0A847F3E706AD4946284611F0BDFBD9F8F9
S31500002ED000303C680CAF41463846019311F0B4FB14
S31500002EE0D8F800000699002E00F0B180002940F3C2
S31500002EF00882DDF830E04B1E734540F00282D4F8BC
S31500002F0000C0BCF1000FC0F2F8818C4580F2F98157
S31500002F1012AB03EB8C0353F82C4C4FEA8C08BCF134
S31500002F20000F00F00C82079EBEF1000F00F0E98151
S31500002F30012200238A460DF11C0907E0534500F0E3
S31500002F40E0819E4559F8046F00F0DB8157F8041FB5
S31500002F50B14240F0D6810133634506FB02F2EDD162
S31500002F6001335345514680F2E78112AE06EB8306E4
S31500002F70E64556F82C6C40F3C48103F1010905EBD4
S31500002F8089094FF0010C454607E09E451D4659F854
S31500002F90046F40F3B6813B46AD0048356D4455F8A5
S31500002FA0145CAE4240F0AD815F1C8F4206FB0CFC08
S31500002FB0EBDB002A47DD031F049300230CFB04FB15
S31500002FC01146E1469A4698465A464FEA8C00BCF1AD
S31500002FD0000F31DD0026A9EB030BCDF80890B146B2
S31500002FE0019D4FEA8B0B05EB8307049DABF1040BA8
S31500002FF005EB8A0ECDF80C80012CF7EC017A4FF028
S31500003000000611DD01250BEB070898ED007AB4EEFA
S31500003010E77AF1EE10FAC8BF2E4605F1010577FEF4
S31500003020277AAC428044F0D109F10109E1454EF816
S31500003030046FE1D1DDE9029808F101088845E24410
S3150000304013449144C3D1002013B0BDE8F08F00298A
S3150000305040F35781DDF830E04B1E734540F0518157
S31500003060D4F800C0BCF1000FC0F257818C4580F245
S31500003070488112AB03EB8C0353F82C4C4FEA8C08B7
S31500003080BCF1000F00F06881079EBEF1000F00F052
S315000030903881012200238A460DF11C0907E05345B9
S315000030A000F02F819E4559F8046F00F02A8157F8E9
S315000030B0041FB14240F025810133634506FB02F24D
S315000030C0EDD101335345514680F2438112AE06EBF2
S315000030D08306E64556F82C7C40F3138103F101097B
S315000030E005EB89094FF0010C454607E09E451D4654
S315000030F059F8047F40F305813346AD0048356D44E9
S3150000310055F8145CBD4240F0FC805E1C8E4207FB05
S315000031100CFCEBDB002A96DD031F049300230CFB5B
S3150000312004FB0392E1469A4698465A464FEA8C00BB
S31500003130BCF1000F30DD0026CDF80880B0460199BD
S31500003140A9EB030B01EB830704994FEA8B0BABF159
S31500003150040B01EB8A0E012CF7EC017A4FF0000606
S3150000316012DD01210BEB070595ED007AB4EEE77A47
S31500003170F1EE10FA48BF0E4601F1010148BFF0EE2C
S31500003180477A8C420544EFD108F10108E0454EF834
S31500003190046FE0D1DDF80880039908F1010888453D
S315000031A0E24413449144C3D14DE700BF18A803007D
S315000031B0D4A70300002940F3A480DDF830C04B1EDD
S315000031C0634540F09E80D4F80080B8F1000FC0F24D
S315000031D09F80884580F2958012AB03EB880353F8F5
S315000031E02C6C4FEA880EB8F1000F00F0AD80079CFA
S315000031F0BCF1000F00F08580012200238B460DF103
S315000032001C0A05E05B457CD09C455AF8044F78D0F3
S3150000321057F8041FA14274D10133434504FB02F25F
S31500003220F0D101335B4559467CDA12AC04EB8304DA
S31500003230E04554F82CAC64DA03F1010805EB880884
S3150000324057460125744606E063451C4658F8047F38
S3150000325057DA7346A40048346C4454F8144CA74219
S315000032604FD103F1010E8E4507FB05F5ECDB002A75
S315000032707FF7E9AE002105FB06FAA0F1040B0392E5
S3150000328008462A46544609F1FF335B1B0493CDF8E2
S315000032901490002D2ADD4FF0000E9446049BCDE9D4
S315000032A0010103EB0209059B0BEB810803EB020A04
S315000032B0012E4FF0000219F9011F0EDD01230AEB62
S315000032C00E0090F9007028448F42B8BF1A4603F1E9
S315000032D00103B8BF3946B342F3D10EF1010E75456D
S315000032E048F8042FE4D1DDE901016246039B013071
S315000032F0984229442244CCD1A5E61CEB010C7FF56B
S3150000330007AE36F0B7FD1CEB010C7FF530ADF8E7E4
S3150000331018EB01087FF560AFF3E71CEB010C7FF5B6
S31500003320A8AEEEE70125A2E74FF0010C6FE50129F3
S3150000333017D00122134646E54FF0010C39E6012964
S3150000334012D001231A4610E6012910D00122134695
S315000033506BE74FF0010CDDE601290BD00122134685
S31500003360B4E68C460A4655E58C460A4623E60A46E6
S315000033700D467FE70A468C46CEE600BF0022FFF7E1
S31500003380ABBC00BF0122FFF7A7BC00BF002210B5EF
S3150000339004461146024B11F0FBF8204610BD00BF53
S315000033A085330000002210B504461146024B11F089
S315000033B0EFF8204610BD00BF7D33000070B5002237
S315000033C004460E4611F00CF9B0B10122054631460D
S315000033D0204611F005F9024670B1E3689B689869CA
S315000033E028B12B68BDE8704019682EF0E7BC034889
S315000033F02DF082FD012070BD36F03CFD48A803008B
S315000034002DE9F0410B68044686B013B11B68022B08
S3150000341011D00226484A6569CDE90123474A20466C
S3150000342000922723464A47490396A8470124204687
S3150000343006B0BDE8F0814B680E4613B11B68002B41
S3150000344050D100223146204611F0CAF80546002820
S315000034506FD0037A0E2B0AD0022B08D03A49656941
S31500003460332300912046364A3849A847DEE76B6881
S315000034701F68002F43DD00219E464FF0010C984641
S31500003480084658F8042F0130D3170CFB03F302FB50
S315000034900133ACFB02C1B8421944F2D10CF1FF3C36
S315000034A05CEA010C2BD000210126084665695EF80E
S315000034B0042F0130D31706FB03F302FB0133A6FBEF
S315000034C00261B8421944F2D10127214B214A0391E6
S315000034D00193009220463523194A1A490296049709
S315000034E0A847A3E700251C4A4469CDE901231B4AE6
S315000034F0282300921349124A0395A04796E7E768E6
S3150000350031463B68012238469B699847064680B19A
S31500003510BB68296822469869096833462EF024FC60
S315000035200446002883D13B68314638465B6A984793
S315000035307DE736F09FFC00BF500C0400F0A80300A6
S31500003540B8A8030058A6030000A9030064A5030059
S31500003550B0C0030068A9030024AE030074A60300EC
S3150000356010B504460021034B034A11F011F820461A
S3150000357010BD00BFBD33000001340000F0B50B687C
S31500003580044685B013B11B68032B0FD03B4A65690F
S315000035900326CDE9012320462923394A00923949D9
S315000035A0394A0396A847012005B0F0BD4B680D4681
S315000035B0002B30D01B68012B2DD1C6680022336842
S315000035C030469B6998473368294600220546DB69E1
S315000035D0304698470746002D2FD000282DD0AB68DF
S315000035E01B68022B2CDD82681268022A1CDD042B64
S315000035F029DC042A2ADC28783B78834229D13368DF
S31500003600294630465B6A98473368304639465B6AD6
S3150000361098470020C8E71D4A65690126CDE90123C0
S3150000362020462A231A4AB9E735231A4965692046EE
S315000036300091154A1849A847B5E732231749F5E717
S3150000364034231749F2E736231649EFE7372316499D
S31500003650ECE7666930F080FF0546387830F07CFF8D
S3150000366003461249124ACDE90253009201912046BF
S315000036703823054A0F49B04795E700BFD0A9030094
S31500003680F0A8030058A6030094A90300B0C00300E5
S3150000369074A6030030AA030064A50300D4A903009E
S315000036A0FCA9030068AA03009CAA0300E0A6030085
S315000036B01CA70300A8A603002DE9F04F0022C1B005
S315000036C004460D4610F08CFF012229460646204688
S315000036D010F086FF022229468346204610F080FF1E
S315000036E0002229468246204610F094FF96F808806C
S315000036F08146B8F1010F00F00381B8F1090F40F0DF
S31500003700F280314616A810F09FFF59461CA8D6F83D
S31500003710008010F099FFBBF1000F00F04B8251467C
S3150000372022A8DBF8005010F08FFFBAF1000F00F06E
S315000037304182494628A8DAF8006010F085FFB9F101
S31500003740000F00F03782169CD9F80030022C029345
S3150000375040F33082042C00F32D82289B9C4240F0DB
S315000037602982042C40F0BF810DF1580C0DF1B809E7
S31500003770BCE80F00A9E80F009CE8030028AF0DF194
S31500003780D00E89E803000FCFAEE80F0097E80300DC
S315000037908EE80300349B022B039340F30B82DDE992
S315000037A036292E9B0792359A032B0493059240F3F4
S315000037B00182DDE92F30DDE931B712933368042C3D
S315000037C0149316BF0023B3684FF0010A0F93129BA0
S315000037D008BFD5F804A0002BD5F800C040F3DC8163
S315000037E00BFB00F307FB03F307FB0BFE13930CFB2A
S315000037F009F34646CDE9003E00258646059ABEF108
S31500003800000F95FBF2F302FB1352069240F3CA81B6
S31500003810DDE9054093FBFAF80AFB18330E93149B77
S315000038200443A8EB0308079B314603FB00830022F1
S3150000383009FB03F3CDE91056089408E0019801321C
S31500003840014400989645E044034400F0A981B8F18C
S31500003850000FF3DB07984045F0DDBBF1000FEDDD0F
S31500003860DDE90E04041B3846CDF824804F460E468B
S31500003870002598468146CDE90AECCDE90C21002CBD
S3150000388021DBBC421FDA039B042B40F09381089B8B
S3150000389023B1DDE90532934240F38C81389B002B3E
S315000038A0C0F28881029A04EB080003FB0020049B07
S315000038B0042B40F07F81B9F1000FC0F27B814A46AC
S315000038C0314636F0F5FC0135AB4554444E44D6D16D
S315000038D0DDE90AECDDE90C2148464346B946DDF848
S315000038E024800746AAE74046656930F035FEB249AE
S315000038F00246337A2046A847012041B0BDE8F08F42
S31500003900314616A810F0A0FE59461CA8376810F0DC
S315000039109BFEBBF1000F00F04D81514622A8DBF85B
S31500003920005010F091FEBAF1000F00F043814946B5
S3150000393028A8DAF8006010F087FEB9F1000F00F051
S315000039403981169CD9F80030022C039340F332815A
S31500003950042C00F32F81289B9C4240F02B81042CE1
S3150000396040F0E9800DF1580E0DF1B809BEE80F00E0
S31500003970A9E80F009EE803000DF1A00C0DF1D00898
S3150000398089E80300BCE80F00A8E80F009CE80300E4
S3150000399088E80300349B022B049340F30B81DDE996
S315000039A0362A2E9B0892359A032B0593069240F3EE
S315000039B00181DDE9300B329B042C02932F9B18BF4B
S315000039C04FF0010913932B6808BFD5F804900093B4
S315000039D03368159314BF0023B3681093139B002B11
S315000039E040F3DA800BFB00F3029A3E4602FB03F338
S315000039F09B00149302FB0BF34FEA830ECDF804E011
S31500003A0000258646009B4FEA82080AFB03FC069ABD
S31500003A10BEF1000F95FBF2F302FB1352079240F33F
S31500003A20B480DDE9064093FBF9F709FB17330F93E2
S31500003A30159B0443FF1A089B314603FB00730022C3
S31500003A400AFB03F3CDE91156099408E00098013208
S31500003A500744019896450144634400F09480002F82
S31500003A60F4DB0898B842F1DDBBF1000FEEDDDDE9CD
S31500003A700F04CDE90CC7002557461E468A46CDE9F8
S31500003A800AE2041B0E91002C20DBA7421EDD049BDC
S31500003A90042B40F08F80099B23B1DDE90632934267
S31500003AA040F38880389B002BC0F28480301903FBDA
S31500003AB000F0039B03EB8000059B042B7AD1029B4D
S31500003AC0002B77DB4246514636F0F2FB0135AB451B
S31500003AD04C44C244D7D1DDE90AE2BA46DDE90CC757
S31500003AE033460E99B2E701233D9304230DF1E80C0A
S31500003AF0E2463A93179B0DF1B8093B93189B299F11
S31500003B003C93199B0DF1D00E3E93BCE80F00A9E83B
S31500003B100F009CE803002A9B3B973C932B9B89E86C
S31500003B2003003E93BAE80F00AEE80F009CE80300DE
S31500003B308EE803002EE604230DF1E80CE1463A93E5
S31500003B40179BCDF8F4803B93189B0DF1B8083C9376
S31500003B50199B0DF1D00E3E93BCE80F00A8E80F00AC
S31500003B609CE80300299B88E803003B932A9B3C932F
S31500003B702B9B3E93B9E80F00AEE80F009CE80300CC
S31500003B808EE8030006E7DDE91156149B01351E4455
S31500003B90139BAB427FF43BAF002041B0BDE8F08FF2
S31500003BA0DDE91056139B01351E44129BAB427FF490
S31500003BB025AEF1E736F05EF9A0A5030010B5044680
S31500003BC00021034B034A10F0E3FC204610BD00BF62
S31500003BD0B93600007D3500002DE9F0410B6804463A
S31500003BE084B013B11B68022B0BD0202346496569AC
S31500003BF020460091454A4649A847012004B0BDE841
S31500003C00F0814E680D46FEB13668012E1CD1C7689C
S31500003C1000223B6838469B6998473B6832462946EE
S31500003C2006469B69384698473B682946DB69002269
S31500003C3005463846984733788046022B12D0042B27
S31500003C4010D02B233349D2E70127334B334A65691A
S31500003C502046CDE90136009221232C4A30490397AC
S31500003C60A847CAE72A78934210D198F800209342D1
S31500003C7012D0CDE902322E232A4E2B496569204601
S31500003C800091224A26490196A847B6E7CDE90232B5
S31500003C90264E2D232449F1E7B3681B68012B0DD06E
S31500003CA001261D49224ACDE90113204665693123C3
S31500003CB000921B49154A0396A8479EE7AA68126810
S31500003CC0012A05D0CDE90223134E32231949D5E73F
S31500003CD0D8F808301B68012B05D0CDE902320E4E0C
S31500003CE035231549CAE73B68314638465B6A98472B
S31500003CF03B68294638465B6A98473B6838464146E2
S31500003D005B6A9847002079E790E00300D4AA030095
S31500003D1064A503000CAB0300B0C0030074A6030047
S31500003D2058A60300E0A603005CAB03004CAB0300FF
S31500003D306CAB030084AB03009CAB030010B50446D8
S31500003D400021034B034A10F023FC204610BD00BFA0
S31500003D50613F0000D93B00002DE9F843089F0D465E
S31500003D60D7F800C01446BCF1000F1E4667DD0121DE
S31500003D703B4607EB8C0753F8042FBB4202FB01F1CD
S31500003D80F9D100294FDD4B1E0768099A002F02EB77
S31500003D90830257DD002384464FF0010E00EB8708AF
S31500003DA05CF8047FE04507FB0EFEF9D10EF1FF3EFD
S31500003DB0BEEB030E39D455F82E904FF0000E27684F
S31500003DC077450CDDA4464FF0010E04EB87085CF83E
S31500003DD0047FE04507FB0EFEF9D10EF1FF3EBEEB78
S31500003DE0030E16D4B9F1010F56F82E7015D0012F17
S31500003DF001D0B9452CD101339942C2F80090A2F105
S31500003E00040210DD0768002FD8BF4FF00109C2DC9D
S31500003E10D3E7B9F1010FEED14F461760013399424E
S31500003E20A2F10402EEDCBDE8F8832768002FC8BFC4
S31500003E304FF00109C6DC4BB937681760EEE700237F
S31500003E400121A1E74FF0000E7346B4E70127E4E72E
S31500003E5036F010F82DE9F843089F0D46D7F800C054
S31500003E601446BCF1000F1E466DDD01213B4607EBF3
S31500003E708C0753F8042FBB4202FB01F1F9D100294C
S31500003E8054DD4B1E0768099A002F02EBC3025DDD65
S31500003E90002384464FF0010E00EB87085CF8047F90
S31500003EA0E04507FB0EFEF9D10EF1FF3EBEEB030E19
S31500003EB03ED455F83E904FF0000E276877450CDD4E
S31500003EC0A4464FF0010E04EB87085CF8047FE0453A
S31500003ED007FB0EFEF9D10EF1FF3EBEEB030E18D422
S31500003EE0B9F1010F56F83E702AD0012F01D04F4587
S31500003EF034D101334FEAE9779942C2E90097A2F13A
S31500003F00080213DD0768002FD8BF4FF00109C0DC97
S31500003F10D1E7B9F1010FECD14F464FF0000C013358
S31500003F209942C2E9007CA2F10802EBDCBDE8F88305
S31500003F302768002FC8BF4FF00109C1DC53B93768A5
S31500003F404FEAE77CEBE7002301219BE74FF0000EE9
S31500003F507346AEE701274FF0000CE0E735F08AFF25
S31500003F60F0B50022A1B004460F4610F039FB01223D
S31500003F7039460646204610F033FB394605460022F0
S31500003F80204610F047FB037A0446022B31461CD02C
S31500003F900EA810F059FB002E33D0294614A8366817
S31500003FA010F052FB6DB32F681AAD2146284610F06B
S31500003FB04BFB23680EA8CDE9005331463B4614AAB5
S31500003FC0FFF748FF002021B0F0BD02A810F03CFB2F
S31500003FD0BEB1294608A8366810F036FB8DB12F68A9
S31500003FE01AAD2146284610F02FFB236802A8CDE91A
S31500003FF0005331463B4608AAFFF7AEFE002021B02B
S31500004000F0BD35F037FF00BF2DE9F04F0B680446D1
S315000040108BB013B11B68022B0BD04D236949656920
S3150000402020460091684A6949A84701200BB0BDE8BF
S31500004030F08F4E680D4636B33668012E23D1C76819
S3150000404000223B6838469B6998473B6832462946BA
S3150000405006469B69384698473B6800222946DB6935
S31500004060054638469847B26880461368052B3EDCFD
S3150000407095F80090B9F1020F13D0B9F1040F10D0E2
S315000040805A235349CBE70127524B534A65692046C9
S31500004090CDE9013600924E234B4A50490397A84773
S315000040A0C3E7317898F80000814213D1052923D05F
S315000040B0A9680868012822D00126464B484ACDE95E
S315000040C00130464965692523009220463E4A0396FB
S315000040D0A847AAE7CDE90210424A434E65695C2328
S315000040E001922046384A3D490096A8479DE720465A
S315000040F063693E49984798E760233D498FE7D8F8BA
S3150000410008C04968DCF800A08A4504D020466369E7
S315000041103849984789E753454EDCBAF1050FE6DC86
S31500004120002BAAEB030015DD800002EB830352F897
S31500004130041F01290AD0D5F804E0B9F1020F0CBF1B
S315000041405EF800E05EF810E0714535D19A4200F164
S315000041500400ECD14FEA8A0B5A460CF1040105A87B
S3150000416036F0A6F8BAF1000F15DD0023D5F804E005
S3150000417004A901E05B450ED0B9F1020F0CBF5EF851
S3150000418003205EF8132051F8040F04338242F1D065
S315000041904723194943E73B68314638465B6A9847E7
S315000041A03B68294638465B6A98473B68384641462D
S315000041B05B6A9847002039E7204663690F499847AC
S315000041C033E700BF90E00300B4AB030064A503002F
S315000041D048AC0300B0C0030074A6030058A6030051
S315000041E0A4AC0300E0A603001CA70300ECAB03008D
S315000041F084AC0300BCAC030094AD030028AD0300FF
S3150000420010B504460021034B034A10F0C1F92046BD
S3150000421010BD00BF8D430000094000002DE9F04F9E
S3150000422087B01D46DDE9109B129B07469B45164647
S31500004230139C69D0002349F82B3050F82B304FEAF5
S315000042408B02002B09EB8B0822DD0BF1010A13947C
S3150000425054468246CDE904124F46DDF84C90129B37
S315000042603246CDE9014350462B460499CDF80C90D1
S315000042700097FFF7D3FFD8F800300133C8F80030B5
S315000042805AF82B209342EADB4C46B9465746059A24
S31500004290002349F82B3057F82B3006EB020856F866
S315000042A02B2093422DD0B169D9F80430706901FBF7
S315000042B003F3D9F80010012A00FB0133D9F80810DE
S315000042C0F06900FB0133D9E90371306A00FB07335B
S315000042D0706A00FB013304FB0355D8F8143003FB66
S315000042E004F405EB04030CDD012622461846294694
S315000042F035F0DEFF0346D8F800200136B2422344EB
S31500004300F3DC07B0BDE8F08F8269D9F80430D9F83C
S31500004310000002FB03F8B26902FB03F37A6902FBB1
S315000043200088726902FB0033D9F80800FA6902FBBB
S315000043300088F26902FB0033D9E903E03A6A02FB1E
S315000043400E887A6A06EB8B0702FB0088326A04FB4A
S31500004350081802FB0E33726A02FB003356F82B2054
S3150000436004FB03537D69002A04FB05F5C9DD00241F
S315000043702A461846414635F09BFF03463A68013403
S31500004380A2422B44F4DC07B0BDE8F08F2DE9F047DC
S315000043900022B0B005460E4610F022F9002204466F
S315000043A03146284610F036F90646214604A810F094
S315000043B04BF931460AA8256810F046F90523DDF8C1
S315000043C0108036689845277A169300F39F80D8F1B7
S315000043D005000BD00023012116AA02E0052B00F0F0
S315000043E095800133984242F8041FF7D117AB4FEA84
S315000043F08804224603EB800005A90DF1840935F0F7
S3150000440057FF012104234A46DDF858E00DF1700CF0
S3150000441073457BDA5CF8040D013B42F8040D5161EB
S3150000442000FB01F1581CF3D10523DDF828C01093D9
S315000044309C456BDCB3EB0C000AD00023012210A9CB
S3150000444001E0052B62D00133984241F8042FF8D1E0
S3150000445011AB4FEA8C0203EB80000BA935F028FF65
S315000044600DF1AC0E012104237246DDF840A00DF1DA
S31500004470580C53454ADA5CF8040D013B42F8040D2A
S31500004480516100FB01F1581CF3D14FF0040A59F8B1
S31500004490042D5EF8043D9A421DD1BAF1010AF6D206
S315000044A0B8F1000F2FD04FF0010804AB1C4453F8AD
S315000044B0042F9C4202FB08F8F9D138462EF086FB01
S315000044C002462946304602FB08F235F0F1FE00208E
S315000044D030B0BDE8F08700243846CDE91644CDE972
S315000044E018441A942EF072FB16AACDE902A0009287
S315000044F01CA833462946019426AAFFF78FFE002002
S3150000450030B0BDE8F0874FF00108D6E735F0B2FCD1
S31500004510002230B5D1E904352D6883B01A711D60CB
S315000045200B6804460BB11B686BB94B680BB11B6873
S31500004530E3B9E36898680368DB6A984785420CDA52
S31500004540002003B030BD0B494469332300910A4A69
S315000045500A49A047012003B030BD392308496569DF
S3150000456020460091044A0549A847F3E73423054944
S31500004570F5E700BFF8AD0300C4AD030064A5030072
S3150000458028AE030010AE030010B50C6923794BB9B1
S31500004590C3682168986803685B69984708B901236E
S315000045A0237110BD002010BD836B0BB10821184785
S315000045B010B535F05FFC00BF10B50446034B044A46
S315000045C004490FF0E5FF204610BD00BF89450000F5
S315000045D011450000A9450000F0B50B68044685B0FA
S315000045E013B11B68012B0FD0234A65690126CDE95B
S315000045F0012320461D23214A00922149214A039680
S31500004600A847012005B0F0BD4B680D46F3B11B6805
S31500004610012B1BD1C6680022336830469B69984738
S315000046200746E0B13368294600223046DB699847E1
S315000046300546E8B13368394630465B6A98473368C1
S31500004640304629465B6A98470020DBE70A4A6569D7
S315000046500126CDE9012320461E230B4ACCE724235D
S315000046600A49656920460091064A0949A847C8E7EC
S3150000467027230849F5E700BFB0C00300F0A80300F0
S3150000468058A6030064AE030074A603007CA50300CD
S3150000469064A50300E8A9030070B500228CB00546A6
S315000046A00E460FF09DFF00223146044628460FF0C5
S315000046B0B1FF0546214668460FF0C6FF294606A803
S315000046C00FF0C2FF009E069B9E4240F0A581002E81
S315000046D0D8BF012217DD6B46EE4600220DF1180CFD
S315000046E05CF8040F5EF8041F884240F095810132A1
S315000046F09642F5D101220DEB860053F8041F834242
S3150000470001FB02F2F9D1207A431E0F2B09D8DFE80C
S3150000471003F01222080808084A08320808080808A0
S31500004720083E2FF019FF227A014699482CF0E4FB47
S3150000473000200CB070BD287A2168431E082B3ED895
S31500004740DFE813F05D014E013D003D003D003D00F8
S315000047503C013D002A01287A2368411E08292ED8EB
S31500004760DFE811F00501F8002D002D002D002D00C9
S31500004770EB002D00DE00287A2368411E08291ED88A
S31500004780DFE801F0BCAE1D1D1D1DA01D9300287A9B
S315000047902368411E082912D8DFE801F07669111155
S315000047A011115C114F00287A2368411E082906D88A
S315000047B0DFE801F03327050505051B050F002FF07F
S315000047C0CBFE2A7A014673482CF096FB00200CB0EB
S315000047D070BD03EB420293422968A9D033F9020B5C
S315000047E09A4201F8010BF9D1A2E7520029689FD03D
S315000047F0023B881833F9022F21F8022B8142F9D1A6
S3150000480096E703EB42029342296891D033F9020BF3
S315000048109A4241F8040BF9D18AE703EB420293422C
S31500004820296885D033F9020B07EE900AF8EEE77A8D
S315000048309A42E1EC017AF5D17AE703EB82029342E0
S3150000484029683FF475AF53F8040B934201F8010B46
S31500004850F9D16DE703EB8202934229683FF468AF12
S3150000486053F8040B934221F8020BF9D160E792004A
S3150000487029683FF45DAF043B881853F8042F41F8CC
S31500004880042B8142F9D153E7920029683FF450AFD7
S31500004890043B0A44D3ED017AF8EE677AE1EC017A3B
S315000048A0914203F10403F5D142E72968002A3FF457
S315000048B03FAF013B0A4413F9010F01F8010B914286
S315000048C0F9D135E71A44934229683FF431AF013BE9
S315000048D0501E13F9012F834221F8022BF9D127E745
S315000048E01A44934229683FF423AF013B501E13F943
S315000048F0012F834241F8042BF9D119E71A44934258
S3150000490029683FF415AF013B013A13F9010F07EE91
S31500004910900AF8EEE77A9342E1EC017AF5D107E7DF
S3150000492003EB8202934229683FF402AF53F8040B6B
S315000049309A4201F8010BF9D1FAE603EB820293429F
S3150000494029683FF4F5AE53F8040B9A4221F8020B9E
S31500004950F9D1EDE6920029683FF4EAAE043B8818E7
S3150000496053F8042F41F8042B8142F9D1E0E6920076
S3150000497029683FF4DDAE043B0A44D3ED017AF8EE34
S31500004980E77AE1EC017A914203F10403F5D1CFE62F
S31500004990B8AE030094AE030001EB82029142286890
S315000049A03FF4C6AE0B46F3EC017AFDEEE77A17EE5E
S315000049B0901A9A4200F8011BF5D1B9E601EB820282
S315000049C0914228683FF4B4AE0B46F3EC017AFDEE53
S315000049D0E77A17EE901A934220F8021BF5D1A7E664
S315000049E0920028683FF4A4AE0B460244F3EC017A29
S315000049F0FDEEE77AE0EC017A9042F7D198E6930073
S31500004A0028683FF495AE0A46034452F8041B40F862
S31500004A10041B9842F9D18BE635F02CFA10B5044602
S31500004A200021034B034A0FF0B3FD204610BD00BF23
S31500004A3099460000D94500002DE9F041C6680446B4
S31500004A40336884B0002230469B690D46984700289B
S31500004A504CD033680746002229463046DB69984722
S31500004A60804600284BD02B680BB31B68012B1ED148
S31500004A706D68002D2CD02D68012D29D1387801289C
S31500004A8054D198F8000001283CD1D8F81830BA69FA
S31500004A90934260D0CDE902324A4E4B4965692C23D8
S31500004AA000912046494A4A490196A8470CE001264A
S31500004AB0484A6569CDE90123474A204600922823E2
S31500004AC0424A43490396A847012004B0BDE8F08155
S31500004AD00127404B414A66692046CDE901350092DF
S31500004AE029233A4A3A490397B047EDE724233C493C
S31500004AF0656920460091354A3A49A847E4E72723E5
S31500004B003949F5E766692FF027FD054638782FF015
S31500004B1023FD03463549364ACDE9025300920191F9
S31500004B2020462B23294A3349B047CDE766692FF043
S31500004B3013FD034628461D462FF00EFD03462E495B
S31500004B402A4ACDE902530092019120462A231F4AA0
S31500004B502849B047B8E7D8F80810BA68D1F800C0B5
S31500004B6013689C451BD1BCF1000FC8BF002302DCB3
S31500004B701BE09C4519D051F8040F52F8045F01332D
S31500004B80A842F6D02F23CDE902051C4A1C496569C7
S31500004B902046019200910D4A0D49A84794E7CDE9B8
S31500004BA002C3184A2D231849F1E7336839463046BF
S31500004BB05B6A98473368304641465B6A98470020EF
S31500004BC083E700BF0CAF03001CAF0300DCAE03009D
S31500004BD058A60300B0C00300F0A8030074A60300A3
S31500004BE07CA5030064A50300E8A903001CA7030035
S31500004BF0E0A60300A8A6030094B9030054AF03007F
S31500004C006CAF03002CAF030040AF0300F0B50022E9
S31500004C108DB005460E460FF0E3FC314604460022F1
S31500004C2028460FF0F7FC2146054668460FF00CFDB6
S31500004C30ACB3294606A824680FF006FD7DB3009F95
S31500004C40069B28689F422AD1002F26DD6A46EC463D
S31500004C50002306A951F8046F5CF8045FAE421ED12A
S31500004C6001339F42F6D101230DEB870552F8041F4D
S31500004C70AA4201FB03F3F9D1002B0BDDA446014642
S31500004C800022FCEC017AFAFE677A01329A42E1ECE4
S31500004C90017AF6DB00200DB0F0BD0123EEE735F01A
S31500004CA0E9F800BF10B504460021034B034A0FF094
S31500004CB06FFC204610BD00BF0D4C0000394A0000B5
S31500004CC070B5836B84B0CBB10D4608211646984764
S31500004CD0044605B126B900232046636004B070BDC2
S31500004CE03246294601A82AF007FB054B01A8196898
S31500004CF02AF03CFB6060204604B070BD35F0BAF87F
S31500004D00F4100400F8B51F4B0E461A6805460FF05E
S31500004D1067FC1D4B314604461A6828460FF07AFC9C
S31500004D20366966B342680346D2E90217207A1269E9
S31500004D30092817D102FB07F50139276805FB01F49D
S31500004D401B6822465919184635F027FA2A4639466D
S31500004D50204435F0ADFA30680138306060B97368C8
S31500004D603360F8BD6E692FF0F7FB08490246237AD7
S31500004D702846B0470120F8BD054B1878F8BD35F038
S31500004D8079F800BFFC100400F8100400A0A5030089
S31500004D90F010040008B50D48D0E8AF3FDB0701D599
S31500004DA00B4808BD30F0C3FF0028F9D0094B0A4A6A
S31500004DB00A4907480FF0ECFB044830F0C7FF0448E7
S31500004DC008BD024830F0BFFF30F068FC78050020CF
S31500004DD07C050020054D0000E14D0000C14C00009F
S31500004DE02DE9F041C56800222B6886B09B69044610
S31500004DF028460E4698472B68002207463146284625
S31500004E00DB6998473269002A00F0C580002F37D049
S31500004E10034600283DD0D0F808E0B968DEF804C0A3
S31500004E20486860450FD03823CDE9020C5B4A5C49DF
S31500004E3065692046019200915A4A5B49A8470120BC
S31500004E4006B0BDE8F081886801280BD1D1F80CC006
S31500004E50DEF80C0084451FD03A23CDE902C0534A40
S31500004E605349E5E70126534B534A0390019365697D
S31500004E703923009220464B4A4B490296A847DEE763
S31500004E8036234E49656920460091464A4C49A84753
S31500004E90D5E737234B49F5E7D1F810C0DEF81010F7
S31500004EA061451BD197F8008093F800C0C44522D114
S31500004EB0BCF1090F36D15468002C48DD146032610C
S31500004EC02A6839462846526A05939047059B2A6800
S31500004ED019462846536A98470020B1E7CDE9021CD7
S31500004EE0394A3A4E65693B23019220462D4A2E499E
S31500004EF00096A847A3E74046059366692FF02CFB6A
S31500004F00059B054618782FF027FB03463049314AA2
S31500004F10CDE902530092019120463D23214A2E49B4
S31500004F20B0478CE7604666692FF016FB05460920F8
S31500004F302FF012FB03462949264ACDE90253009277
S31500004F40019120464023174A2349B04777E7DFF807
S31500004F5090C0DEF80880DCF80040B8F1190F04F1C3
S31500004F600104CCF800400CD8DFF878E02EFA08FEF1
S31500004F701EF0010F05D0012400215460CCF800106A
S31500004F809CE7052C02D00224546097E70228FAD148
S31500004F906029F8D1EFE734F06DFF00BFC4AF03001E
S31500004FA0DCAF030084AF030058A603000CB0030077
S31500004FB024B00300F4AF0300B0C003007CA50300D7
S31500004FC064A50300E8A903003CB0030054B0030045
S31500004FD0E0A603001CA70300A8A6030004B603006E
S31500004FE0A005002020200002836B0BB1202118476A
S31500004FF010B534F03FFF00BF2DE9F043D1F8108023
S3150000500087B0B8F1000F5ED0C46807462368002257
S3150000501020469B690E4698470546C0B1236831462F
S31500005020012220469B6998470646E8B12B78092B52
S315000050301ED02368294620465B6A98472368204687
S3150000504031465B6A9847002007B0BDE8F08340F21E
S3150000505023231E4938467C691D4A00911D49A047F5
S31500005060012007B0BDE8F08340F226231A49F1E794
S315000050702B69C3F100090369E8685F4233F0E8F978
S3150000508041EC100B03A902A82DF042FAF06833F0A8
S31500005090DFF941EC100B05A904A82DF039FA082315
S315000050A0C8F80030029BC8F80490C8F80830039B83
S315000050B0C8F81070C8F80C30049BC8F81430059B6B
S315000050C0C8F81830B5E734F0D5FE00BFF0A50300E8
S315000050D06CB0030064A5030004A603002DE9F047A5
S315000050E08E4609689CB004297FDC17689046042F19
S315000050F07BDC1E681D46042E77DC04230446581A02
S3150000510000930DD04FF0000C01226B4602E0BCF17B
S31500005110040F6AD00CF1010C604543F8042FF6D158
S3150000512001AB8A0003EB80000EF1040135F0C0F8F4
S315000051300423D81B06930BD0002101230DF1180C74
S3150000514001E0042951D0013188424CF8043FF8D1DE
S3150000515007ABBA0008F1040103EB800035F0A8F8AC
S3150000516001210323009F0DF1140C10AA9F423CDD80
S315000051705CF8040D013B42F8040D116100FB01F1DE
S31500005180581CF3D101210323DDF818E00DF12C0C96
S3150000519018AA9E4529DD5CF8040D013B42F8040D72
S315000051A0116100FB01F1581CF3D10022E84692463A
S315000051B00DF1300C14A90DF11809964558F8043F65
S315000051C013D059F8040F984206D0012B3DD0012880
S315000051D00BD10B60C1F810A00132042A0CF1040CAB
S315000051E001F1040103D0BA42E7D134F043FED6F10F
S315000051F0040622600BD021460022012301E0042A86
S31500005200F3D00132964241F8043FF8D12A68201DB6
S31500005210291D920000EB860035F04AF80CAE04F129
S31500005220180C0FCEACE80F0096E80F0014AD04F191
S3150000523038078CE80F000FCD0FC795E80F0087E8F9
S315000052400F0020461CB0BDE8F087CCF80000CCF873
S3150000525010A0C1E710B50446034B044A04490FF0F9
S3150000526097F9204610BD00BF69560000F94F0000AF
S31500005270E94F000010B50446034B044A04490FF0F9
S3150000528087F9204610BD00BF11660000F94F0000E7
S31500005290E94F000010B50446034B044A04490FF0D9
S315000052A077F9204610BD00BF99750000F94F000040
S315000052B0E94F000010B50446034B044A04490FF0B9
S315000052C067F9204610BD00BF05830000F94F0000B6
S315000052D0E94F000010B50446034B044A04490FF099
S315000052E057F9204610BD00BF75900000F94F000029
S315000052F0E94F000010B50446034B044A04490FF079
S3150000530047F9204610BD00BFE59D0000F94F00009B
S31500005310E94F00002DE9F04F1E4604469346C5B0FE
S3150000532032464F9B2EA8CDF86CB0FFF7D7FED4E9D6
S315000053300083A26804932E9BE06801922269002BE9
S3150000534005920393D4E9052525900E9540F38081B7
S31500005350DDE9304A0AFB04F3464232984FF0000C6E
S3150000536000FB03F301212693349B00FB0AFB0A93FF
S31500005370359B02900B93369B6D420C93379BDDF861
S3150000538040E10D93DDE939031D933B9B2F9F149359
S315000053903C9B0F9606933D9B129507933E9BE146D9
S315000053A008933F9B0993419B1E93429BCDF8A48093
S315000053B01C93439BE0461393409B1F902793389B77
S315000053C0289301FA06F33E46013BA94001391093A2
S315000053D05B1011934E454FEA6103274615915C46D3
S315000053E071461693E64640F30C81039B012B00F0B1
S315000053F02F81002F40F3FA80039B022B00F02881B7
S315000054002A9626460D463C464FF0000C3746734614
S315000054104046CDE92B18CDF8B4E0DDF89480DDF8F0
S31500005420A4E0CDF868A01A99002940F3CB8003992F
S31500005430032900F00D8101469A46AB460026CDE9C8
S315000054402034CDE9225024974E9B0BF1FF375D188F
S315000054501B9B0020CDE917BA03EB0A0400971991AC
S315000054604BE013F180434AF1000ADB0F43EA4A039B
S31500005470B8F1000F00F38D8018F11F0FC0F2E18024
S31500005480109F07EA030B119F07EBD37A0F9F3B414F
S31500005490D345C8BF01338A4200F0CC8081FB021A93
S315000054A0BAF1000FC0F2B08011F180414AF1000A52
S315000054B0C90F41EA4A010E9F002F6ADC1F37C0F26E
S315000054C0C080139F3D44149F3C44159F07EA010B7F
S315000054D0169F07EBD17A129F3941039FD345C8BF68
S315000054E00131042F40F0B4805B1AB3FA83F30099BC
S315000054F05B0901F8013F01300091029B83424FDDB9
